{
  "contractName": "Bank",
  "abi": [
    {
      "constant": true,
      "inputs": [],
      "name": "user",
      "outputs": [
        {
          "name": "",
          "type": "address"
        }
      ],
      "payable": false,
      "stateMutability": "view",
      "type": "function"
    },
    {
      "constant": true,
      "inputs": [
        {
          "name": "",
          "type": "address"
        }
      ],
      "name": "account",
      "outputs": [
        {
          "name": "userBank",
          "type": "string"
        },
        {
          "name": "userName",
          "type": "string"
        },
        {
          "name": "password",
          "type": "string"
        },
        {
          "name": "etherAccount",
          "type": "address"
        },
        {
          "name": "balanceOf",
          "type": "uint256"
        }
      ],
      "payable": false,
      "stateMutability": "view",
      "type": "function"
    },
    {
      "inputs": [],
      "payable": false,
      "stateMutability": "nonpayable",
      "type": "constructor"
    },
    {
      "anonymous": false,
      "inputs": [
        {
          "indexed": false,
          "name": "_userAddr",
          "type": "address"
        }
      ],
      "name": "SetUser",
      "type": "event"
    },
    {
      "anonymous": false,
      "inputs": [
        {
          "indexed": false,
          "name": "_userAddr",
          "type": "address"
        }
      ],
      "name": "FailSetUser",
      "type": "event"
    },
    {
      "anonymous": false,
      "inputs": [
        {
          "indexed": false,
          "name": "user",
          "type": "address"
        }
      ],
      "name": "InitUser",
      "type": "event"
    },
    {
      "constant": false,
      "inputs": [
        {
          "components": [
            {
              "name": "userBank",
              "type": "string"
            },
            {
              "name": "userName",
              "type": "string"
            },
            {
              "name": "password",
              "type": "string"
            },
            {
              "name": "etherAccount",
              "type": "address"
            },
            {
              "name": "balanceOf",
              "type": "uint256"
            }
          ],
          "name": "_AccountInfo",
          "type": "tuple"
        }
      ],
      "name": "addUser",
      "outputs": [],
      "payable": false,
      "stateMutability": "nonpayable",
      "type": "function"
    },
    {
      "constant": false,
      "inputs": [
        {
          "name": "_user",
          "type": "address"
        }
      ],
      "name": "setUser",
      "outputs": [],
      "payable": false,
      "stateMutability": "nonpayable",
      "type": "function"
    },
    {
      "constant": false,
      "inputs": [],
      "name": "initUser",
      "outputs": [],
      "payable": false,
      "stateMutability": "nonpayable",
      "type": "function"
    },
    {
      "constant": true,
      "inputs": [],
      "name": "getBalance",
      "outputs": [
        {
          "name": "",
          "type": "uint256"
        }
      ],
      "payable": false,
      "stateMutability": "view",
      "type": "function"
    },
    {
      "constant": false,
      "inputs": [
        {
          "name": "_amount",
          "type": "uint256"
        }
      ],
      "name": "deposit",
      "outputs": [],
      "payable": false,
      "stateMutability": "nonpayable",
      "type": "function"
    },
    {
      "constant": false,
      "inputs": [
        {
          "name": "_amount",
          "type": "uint256"
        }
      ],
      "name": "withdraw",
      "outputs": [],
      "payable": false,
      "stateMutability": "nonpayable",
      "type": "function"
    },
    {
      "constant": true,
      "inputs": [
        {
          "name": "_password",
          "type": "string"
        }
      ],
      "name": "checkPassword",
      "outputs": [],
      "payable": false,
      "stateMutability": "view",
      "type": "function"
    },
    {
      "constant": false,
      "inputs": [
        {
          "name": "_amount",
          "type": "uint256"
        },
        {
          "name": "_receiver",
          "type": "address"
        }
      ],
      "name": "remit",
      "outputs": [],
      "payable": false,
      "stateMutability": "nonpayable",
      "type": "function"
    }
  ],
  "bytecode": "0x608060405234801561001057600080fd5b50336000806101000a81548173ffffffffffffffffffffffffffffffffffffffff021916908373ffffffffffffffffffffffffffffffffffffffff16021790555061134f806100606000396000f3006080604052600436106100a4576000357c0100000000000000000000000000000000000000000000000000000000900463ffffffff16806312065fe0146100a95780631eb05ad6146100d45780632e1a7d4d146100fd5780634f8632ba14610126578063571da7581461015157806373b9aa911461017a578063858ced35146101bb57806387e16d4d146101e4578063b6b55f251461020d578063c06bd7e114610236575b600080fd5b3480156100b557600080fd5b506100be61024d565b6040516100cb91906111c3565b60405180910390f35b3480156100e057600080fd5b506100fb60048036036100f691908101906110b0565b610314565b005b34801561010957600080fd5b50610124600480360361011f9190810190611087565b61045b565b005b34801561013257600080fd5b5061013b6105ac565b6040516101489190611140565b60405180910390f35b34801561015d57600080fd5b5061017860048036036101739190810190611046565b6105d2565b005b34801561018657600080fd5b506101a1600480360361019c9190810190610fdc565b6108c8565b6040516101b295949392919061115b565b60405180910390f35b3480156101c757600080fd5b506101e260048036036101dd9190810190610fdc565b610ae6565b005b3480156101f057600080fd5b5061020b60048036036102069190810190611005565b610b2a565b005b34801561021957600080fd5b50610234600480360361022f9190810190611087565b610c70565b005b34801561024257600080fd5b5061024b610d4f565b005b60008060009054906101000a900473ffffffffffffffffffffffffffffffffffffffff1673ffffffffffffffffffffffffffffffffffffffff163373ffffffffffffffffffffffffffffffffffffffff161415156102aa57600080fd5b60026000600160009054906101000a900473ffffffffffffffffffffffffffffffffffffffff1673ffffffffffffffffffffffffffffffffffffffff1673ffffffffffffffffffffffffffffffffffffffff16815260200190815260200160002060040154905090565b60008211151561032357600080fd5b8160026000600160009054906101000a900473ffffffffffffffffffffffffffffffffffffffff1673ffffffffffffffffffffffffffffffffffffffff1673ffffffffffffffffffffffffffffffffffffffff1681526020019081526020016000206004015411151561039557600080fd5b8160026000600160009054906101000a900473ffffffffffffffffffffffffffffffffffffffff1673ffffffffffffffffffffffffffffffffffffffff1673ffffffffffffffffffffffffffffffffffffffff1681526020019081526020016000206004016000828254039250508190555081600260008373ffffffffffffffffffffffffffffffffffffffff1673ffffffffffffffffffffffffffffffffffffffff168152602001908152602001600020600401600082825401925050819055505050565b6000809054906101000a900473ffffffffffffffffffffffffffffffffffffffff1673ffffffffffffffffffffffffffffffffffffffff163373ffffffffffffffffffffffffffffffffffffffff161415156104b657600080fd5b6000811115156104c557600080fd5b8060026000600160009054906101000a900473ffffffffffffffffffffffffffffffffffffffff1673ffffffffffffffffffffffffffffffffffffffff1673ffffffffffffffffffffffffffffffffffffffff1681526020019081526020016000206004015411151561053757600080fd5b8060026000600160009054906101000a900473ffffffffffffffffffffffffffffffffffffffff1673ffffffffffffffffffffffffffffffffffffffff1673ffffffffffffffffffffffffffffffffffffffff1681526020019081526020016000206004016000828254039250508190555050565b600160009054906101000a900473ffffffffffffffffffffffffffffffffffffffff1681565b6000809054906101000a900473ffffffffffffffffffffffffffffffffffffffff1673ffffffffffffffffffffffffffffffffffffffff163373ffffffffffffffffffffffffffffffffffffffff1614151561062d57600080fd5b806060015173ffffffffffffffffffffffffffffffffffffffff1660026000836060015173ffffffffffffffffffffffffffffffffffffffff1673ffffffffffffffffffffffffffffffffffffffff16815260200190815260200160002060030160009054906101000a900473ffffffffffffffffffffffffffffffffffffffff1673ffffffffffffffffffffffffffffffffffffffff1614156106d057600080fd5b806000015160026000836060015173ffffffffffffffffffffffffffffffffffffffff1673ffffffffffffffffffffffffffffffffffffffff168152602001908152602001600020600001908051906020019061072e929190610d93565b50806020015160026000836060015173ffffffffffffffffffffffffffffffffffffffff1673ffffffffffffffffffffffffffffffffffffffff168152602001908152602001600020600101908051906020019061078d929190610d93565b50806040015160026000836060015173ffffffffffffffffffffffffffffffffffffffff1673ffffffffffffffffffffffffffffffffffffffff16815260200190815260200160002060020190805190602001906107ec929190610d93565b50806060015160026000836060015173ffffffffffffffffffffffffffffffffffffffff1673ffffffffffffffffffffffffffffffffffffffff16815260200190815260200160002060030160006101000a81548173ffffffffffffffffffffffffffffffffffffffff021916908373ffffffffffffffffffffffffffffffffffffffff160217905550806080015160026000836060015173ffffffffffffffffffffffffffffffffffffffff1673ffffffffffffffffffffffffffffffffffffffff1681526020019081526020016000206004018190555050565b6002602052806000526040600020600091509050806000018054600181600116156101000203166002900480601f0160208091040260200160405190810160405280929190818152602001828054600181600116156101000203166002900480156109745780601f1061094957610100808354040283529160200191610974565b820191906000526020600020905b81548152906001019060200180831161095757829003601f168201915b505050505090806001018054600181600116156101000203166002900480601f016020809104026020016040519081016040528092919081815260200182805460018160011615610100020316600290048015610a125780601f106109e757610100808354040283529160200191610a12565b820191906000526020600020905b8154815290600101906020018083116109f557829003601f168201915b505050505090806002018054600181600116156101000203166002900480601f016020809104026020016040519081016040528092919081815260200182805460018160011615610100020316600290048015610ab05780601f10610a8557610100808354040283529160200191610ab0565b820191906000526020600020905b815481529060010190602001808311610a9357829003601f168201915b5050505050908060030160009054906101000a900473ffffffffffffffffffffffffffffffffffffffff16908060040154905085565b80600160006101000a81548173ffffffffffffffffffffffffffffffffffffffff021916908373ffffffffffffffffffffffffffffffffffffffff16021790555050565b806040518082805190602001908083835b602083101515610b605780518252602082019150602081019050602083039250610b3b565b6001836020036101000a03801982511681845116808217855250505050505090500191505060405180910390206000191660026000600160009054906101000a900473ffffffffffffffffffffffffffffffffffffffff1673ffffffffffffffffffffffffffffffffffffffff1673ffffffffffffffffffffffffffffffffffffffff1681526020019081526020016000206002016040518082805460018160011615610100020316600290048015610c505780601f10610c2e576101008083540402835291820191610c50565b820191906000526020600020905b815481529060010190602001808311610c3c575b5050915050604051809103902060001916141515610c6d57600080fd5b50565b6000809054906101000a900473ffffffffffffffffffffffffffffffffffffffff1673ffffffffffffffffffffffffffffffffffffffff163373ffffffffffffffffffffffffffffffffffffffff16141515610ccb57600080fd5b600081111515610cda57600080fd5b8060026000600160009054906101000a900473ffffffffffffffffffffffffffffffffffffffff1673ffffffffffffffffffffffffffffffffffffffff1673ffffffffffffffffffffffffffffffffffffffff1681526020019081526020016000206004016000828254019250508190555050565b6000600160006101000a81548173ffffffffffffffffffffffffffffffffffffffff021916908373ffffffffffffffffffffffffffffffffffffffff160217905550565b828054600181600116156101000203166002900490600052602060002090601f016020900481019282601f10610dd457805160ff1916838001178555610e02565b82800160010185558215610e02579182015b82811115610e01578251825591602001919060010190610de6565b5b509050610e0f9190610e13565b5090565b610e3591905b80821115610e31576000816000905550600101610e19565b5090565b90565b6000610e448235611298565b905092915050565b600082601f8301121515610e5f57600080fd5b8135610e72610e6d8261120b565b6111de565b91508082526020830160208301858383011115610e8e57600080fd5b610e998382846112c2565b50505092915050565b600082601f8301121515610eb557600080fd5b8135610ec8610ec382611237565b6111de565b91508082526020830160208301858383011115610ee457600080fd5b610eef8382846112c2565b50505092915050565b600060a08284031215610f0a57600080fd5b610f1460a06111de565b9050600082013567ffffffffffffffff811115610f3057600080fd5b610f3c84828501610e4c565b600083015250602082013567ffffffffffffffff811115610f5c57600080fd5b610f6884828501610e4c565b602083015250604082013567ffffffffffffffff811115610f8857600080fd5b610f9484828501610e4c565b6040830152506060610fa884828501610e38565b6060830152506080610fbc84828501610fc8565b60808301525092915050565b6000610fd482356112b8565b905092915050565b600060208284031215610fee57600080fd5b6000610ffc84828501610e38565b91505092915050565b60006020828403121561101757600080fd5b600082013567ffffffffffffffff81111561103157600080fd5b61103d84828501610ea2565b91505092915050565b60006020828403121561105857600080fd5b600082013567ffffffffffffffff81111561107257600080fd5b61107e84828501610ef8565b91505092915050565b60006020828403121561109957600080fd5b60006110a784828501610fc8565b91505092915050565b600080604083850312156110c357600080fd5b60006110d185828601610fc8565b92505060206110e285828601610e38565b9150509250929050565b6110f58161126e565b82525050565b600061110682611263565b80845261111a8160208601602086016112d1565b61112381611304565b602085010191505092915050565b61113a8161128e565b82525050565b600060208201905061115560008301846110ec565b92915050565b600060a082019050818103600083015261117581886110fb565b9050818103602083015261118981876110fb565b9050818103604083015261119d81866110fb565b90506111ac60608301856110ec565b6111b96080830184611131565b9695505050505050565b60006020820190506111d86000830184611131565b92915050565b6000604051905081810181811067ffffffffffffffff8211171561120157600080fd5b8060405250919050565b600067ffffffffffffffff82111561122257600080fd5b601f19601f8301169050602081019050919050565b600067ffffffffffffffff82111561124e57600080fd5b601f19601f8301169050602081019050919050565b600081519050919050565b600073ffffffffffffffffffffffffffffffffffffffff82169050919050565b6000819050919050565b600073ffffffffffffffffffffffffffffffffffffffff82169050919050565b6000819050919050565b82818337600083830152505050565b60005b838110156112ef5780820151818401526020810190506112d4565b838111156112fe576000848401525b50505050565b6000601f19601f83011690509190505600a265627a7a72305820f39b5a457b25ba5bcddf135895a6daad0f54c9f38217ced46ea5b4777a4ee20f6c6578706572696d656e74616cf50037",
  "source": "pragma solidity ^0.4.24;\r\npragma experimental ABIEncoderV2;\r\n\r\ncontract Bank {\r\n    address private bank;\r\n    address public user;\r\n    mapping (address => Account) public account;\r\n    \r\n    struct Account {\r\n        string userBank;\r\n        string userName;\r\n        string password;\r\n        address etherAccount;\r\n        uint balanceOf;\r\n    }\r\n    \r\n    event SetUser (address _userAddr);\r\n    event FailSetUser (address _userAddr);\r\n    event InitUser (address user);\r\n    \r\n    modifier onlyOwner() { require(msg.sender == bank); _; }\r\n    modifier onlyUser(address _userAddr) { \r\n        require(account[_userAddr].etherAccount == _userAddr); \r\n        _; \r\n        emit FailSetUser(_userAddr);\r\n    }\r\n    \r\n    constructor() public{\r\n        bank = msg.sender;\r\n    }\r\n    \r\n    function addUser(Account memory _AccountInfo) public onlyOwner {\r\n        if(account[_AccountInfo.etherAccount].etherAccount == _AccountInfo.etherAccount) revert();\r\n        \r\n        account[_AccountInfo.etherAccount].userBank = _AccountInfo.userBank;\r\n        account[_AccountInfo.etherAccount].userName = _AccountInfo.userName;\r\n        account[_AccountInfo.etherAccount].password = _AccountInfo.password;\r\n        account[_AccountInfo.etherAccount].etherAccount = _AccountInfo.etherAccount;\r\n        account[_AccountInfo.etherAccount].balanceOf = _AccountInfo.balanceOf;\r\n    }\r\n    \r\n    function setUser(address _user) public {\r\n        user = _user;\r\n    } \r\n    \r\n    function initUser() public {\r\n        user = address(0x0);\r\n    }\r\n    \r\n    function getBalance() public onlyOwner view returns (uint) {\r\n        return Bank.account[user].balanceOf;\r\n    }\r\n    \r\n    function deposit(uint _amount) public onlyOwner {\r\n        require(_amount > 0);\r\n        Bank.account[user].balanceOf += _amount;\r\n    }\r\n    \r\n    function withdraw(uint _amount) public onlyOwner {\r\n        require(_amount > 0);\r\n        require(Bank.account[user].balanceOf > _amount);\r\n        Bank.account[user].balanceOf -= _amount;\r\n    }\r\n    \r\n    function checkPassword(string memory _password) public view {\r\n        if(keccak256(Bank.account[user].password) != keccak256(_password)) revert();\r\n    }\r\n    \r\n    function remit(uint _amount, address _receiver) public {\r\n        require(_amount > 0);\r\n        require(Bank.account[user].balanceOf > _amount);\r\n        Bank.account[user].balanceOf -= _amount;\r\n        Bank.account[_receiver].balanceOf += _amount;\r\n    }\r\n}\r\n\r\n",
  "sourcePath": "C:\\Users\\judam\\Documents\\HJ\\dev\\truffle_react\\contracts\\Bank.sol",
  "compiler": {
    "name": "solc",
    "version": "0.4.24+commit.e67f0147.Emscripten.clang"
  },
  "schemaVersion": "2.0.1",
  "updatedAt": "2019-01-14T07:25:46.828Z"
}