{
  "contractName": "Bank",
  "abi": [
    {
      "constant": true,
      "inputs": [],
      "name": "user",
      "outputs": [
        {
          "name": "",
          "type": "address"
        }
      ],
      "payable": false,
      "stateMutability": "view",
      "type": "function"
    },
    {
      "constant": true,
      "inputs": [
        {
          "name": "",
          "type": "address"
        }
      ],
      "name": "account",
      "outputs": [
        {
          "name": "userBank",
          "type": "string"
        },
        {
          "name": "userName",
          "type": "string"
        },
        {
          "name": "password",
          "type": "string"
        },
        {
          "name": "userAddress",
          "type": "address"
        },
        {
          "name": "balanceOf",
          "type": "uint256"
        }
      ],
      "payable": false,
      "stateMutability": "view",
      "type": "function"
    },
    {
      "inputs": [],
      "payable": false,
      "stateMutability": "nonpayable",
      "type": "constructor"
    },
    {
      "anonymous": false,
      "inputs": [
        {
          "indexed": false,
          "name": "_userBank",
          "type": "string"
        },
        {
          "indexed": false,
          "name": "_userAddress",
          "type": "address"
        }
      ],
      "name": "IncorrectInformation",
      "type": "event"
    },
    {
      "anonymous": false,
      "inputs": [
        {
          "indexed": false,
          "name": "user",
          "type": "address"
        }
      ],
      "name": "SendMe",
      "type": "event"
    },
    {
      "constant": false,
      "inputs": [
        {
          "name": "_userBank",
          "type": "string"
        },
        {
          "name": "_userName",
          "type": "string"
        },
        {
          "name": "_password",
          "type": "string"
        },
        {
          "name": "_userAddress",
          "type": "address"
        },
        {
          "name": "_balanceOf",
          "type": "uint256"
        }
      ],
      "name": "addUser",
      "outputs": [],
      "payable": false,
      "stateMutability": "nonpayable",
      "type": "function"
    },
    {
      "constant": false,
      "inputs": [
        {
          "name": "_userAddress",
          "type": "address"
        }
      ],
      "name": "setUser",
      "outputs": [],
      "payable": false,
      "stateMutability": "nonpayable",
      "type": "function"
    },
    {
      "constant": true,
      "inputs": [],
      "name": "getUserName",
      "outputs": [
        {
          "name": "",
          "type": "string"
        }
      ],
      "payable": false,
      "stateMutability": "view",
      "type": "function"
    },
    {
      "constant": false,
      "inputs": [],
      "name": "initUser",
      "outputs": [],
      "payable": false,
      "stateMutability": "nonpayable",
      "type": "function"
    },
    {
      "constant": true,
      "inputs": [
        {
          "name": "_userAddress",
          "type": "address"
        }
      ],
      "name": "getBalance",
      "outputs": [
        {
          "name": "",
          "type": "uint256"
        }
      ],
      "payable": false,
      "stateMutability": "view",
      "type": "function"
    },
    {
      "constant": false,
      "inputs": [
        {
          "name": "_amount",
          "type": "uint256"
        }
      ],
      "name": "deposit",
      "outputs": [],
      "payable": false,
      "stateMutability": "nonpayable",
      "type": "function"
    },
    {
      "constant": false,
      "inputs": [
        {
          "name": "_amount",
          "type": "uint256"
        }
      ],
      "name": "withdraw",
      "outputs": [],
      "payable": false,
      "stateMutability": "nonpayable",
      "type": "function"
    },
    {
      "constant": true,
      "inputs": [
        {
          "name": "_password",
          "type": "string"
        }
      ],
      "name": "checkPassword",
      "outputs": [],
      "payable": false,
      "stateMutability": "view",
      "type": "function"
    },
    {
      "constant": false,
      "inputs": [
        {
          "name": "_userBank",
          "type": "string"
        },
        {
          "name": "_userAddress",
          "type": "address"
        }
      ],
      "name": "checkAccount",
      "outputs": [
        {
          "name": "",
          "type": "string"
        }
      ],
      "payable": false,
      "stateMutability": "nonpayable",
      "type": "function"
    },
    {
      "constant": false,
      "inputs": [
        {
          "name": "_amount",
          "type": "uint256"
        },
        {
          "name": "_receiverAddress",
          "type": "address"
        }
      ],
      "name": "remit",
      "outputs": [],
      "payable": false,
      "stateMutability": "nonpayable",
      "type": "function"
    }
  ],
  "bytecode": "0x608060405234801561001057600080fd5b50336000806101000a81548173ffffffffffffffffffffffffffffffffffffffff021916908373ffffffffffffffffffffffffffffffffffffffff160217905550611f6c806100606000396000f3006080604052600436106100ba576000357c0100000000000000000000000000000000000000000000000000000000900463ffffffff16806312958f1c146100bf5780631eb05ad6146100ea5780632e1a7d4d146101135780634f8632ba1461013c57806373b9aa9114610167578063858ced35146101a857806387e16d4d146101d1578063952d88c9146101fa57806395cec3d014610237578063b6b55f2514610260578063c06bd7e114610289578063f8b2cb4f146102a0575b600080fd5b3480156100cb57600080fd5b506100d46102dd565b6040516100e19190611c87565b60405180910390f35b3480156100f657600080fd5b50610111600480360361010c9190810190611a5c565b610472565b005b34801561011f57600080fd5b5061013a60048036036101359190810190611a33565b6106b7565b005b34801561014857600080fd5b506101516108ab565b60405161015e9190611c6c565b60405180910390f35b34801561017357600080fd5b5061018e600480360361018991908101906118b6565b6108d1565b60405161019f959493929190611cd9565b60405180910390f35b3480156101b457600080fd5b506101cf60048036036101ca91908101906118b6565b610aef565b005b3480156101dd57600080fd5b506101f860048036036101f391908101906118df565b610bc4565b005b34801561020657600080fd5b50610221600480360361021c9190810190611920565b610dd1565b60405161022e9190611c87565b60405180910390f35b34801561024357600080fd5b5061025e60048036036102599190810190611974565b6112d6565b005b34801561026c57600080fd5b5061028760048036036102829190810190611a33565b611496565b005b34801561029557600080fd5b5061029e6115e1565b005b3480156102ac57600080fd5b506102c760048036036102c291908101906118b6565b6116b6565b6040516102d49190611e01565b60405180910390f35b60606000809054906101000a900473ffffffffffffffffffffffffffffffffffffffff1673ffffffffffffffffffffffffffffffffffffffff163373ffffffffffffffffffffffffffffffffffffffff16141515610370576040517f08c379a000000000000000000000000000000000000000000000000000000000815260040161036790611de1565b60405180910390fd5b60026000600160009054906101000a900473ffffffffffffffffffffffffffffffffffffffff1673ffffffffffffffffffffffffffffffffffffffff1673ffffffffffffffffffffffffffffffffffffffff1681526020019081526020016000206001018054600181600116156101000203166002900480601f0160208091040260200160405190810160405280929190818152602001828054600181600116156101000203166002900480156104685780601f1061043d57610100808354040283529160200191610468565b820191906000526020600020905b81548152906001019060200180831161044b57829003601f168201915b5050505050905090565b6000809054906101000a900473ffffffffffffffffffffffffffffffffffffffff1673ffffffffffffffffffffffffffffffffffffffff163373ffffffffffffffffffffffffffffffffffffffff16141515610503576040517f08c379a00000000000000000000000000000000000000000000000000000000081526004016104fa90611de1565b60405180910390fd5b600082111515610548576040517f08c379a000000000000000000000000000000000000000000000000000000000815260040161053f90611d81565b60405180910390fd5b8160026000600160009054906101000a900473ffffffffffffffffffffffffffffffffffffffff1673ffffffffffffffffffffffffffffffffffffffff1673ffffffffffffffffffffffffffffffffffffffff16815260200190815260200160002060040154101515156105f1576040517f08c379a00000000000000000000000000000000000000000000000000000000081526004016105e890611da1565b60405180910390fd5b8160026000600160009054906101000a900473ffffffffffffffffffffffffffffffffffffffff1673ffffffffffffffffffffffffffffffffffffffff1673ffffffffffffffffffffffffffffffffffffffff1681526020019081526020016000206004016000828254039250508190555081600260008373ffffffffffffffffffffffffffffffffffffffff1673ffffffffffffffffffffffffffffffffffffffff168152602001908152602001600020600401600082825401925050819055505050565b6000809054906101000a900473ffffffffffffffffffffffffffffffffffffffff1673ffffffffffffffffffffffffffffffffffffffff163373ffffffffffffffffffffffffffffffffffffffff16141515610748576040517f08c379a000000000000000000000000000000000000000000000000000000000815260040161073f90611de1565b60405180910390fd5b60008111151561078d576040517f08c379a000000000000000000000000000000000000000000000000000000000815260040161078490611d81565b60405180910390fd5b8060026000600160009054906101000a900473ffffffffffffffffffffffffffffffffffffffff1673ffffffffffffffffffffffffffffffffffffffff1673ffffffffffffffffffffffffffffffffffffffff1681526020019081526020016000206004015410151515610836576040517f08c379a000000000000000000000000000000000000000000000000000000000815260040161082d90611da1565b60405180910390fd5b8060026000600160009054906101000a900473ffffffffffffffffffffffffffffffffffffffff1673ffffffffffffffffffffffffffffffffffffffff1673ffffffffffffffffffffffffffffffffffffffff1681526020019081526020016000206004016000828254039250508190555050565b600160009054906101000a900473ffffffffffffffffffffffffffffffffffffffff1681565b6002602052806000526040600020600091509050806000018054600181600116156101000203166002900480601f01602080910402602001604051908101604052809291908181526020018280546001816001161561010002031660029004801561097d5780601f106109525761010080835404028352916020019161097d565b820191906000526020600020905b81548152906001019060200180831161096057829003601f168201915b505050505090806001018054600181600116156101000203166002900480601f016020809104026020016040519081016040528092919081815260200182805460018160011615610100020316600290048015610a1b5780601f106109f057610100808354040283529160200191610a1b565b820191906000526020600020905b8154815290600101906020018083116109fe57829003601f168201915b505050505090806002018054600181600116156101000203166002900480601f016020809104026020016040519081016040528092919081815260200182805460018160011615610100020316600290048015610ab95780601f10610a8e57610100808354040283529160200191610ab9565b820191906000526020600020905b815481529060010190602001808311610a9c57829003601f168201915b5050505050908060030160009054906101000a900473ffffffffffffffffffffffffffffffffffffffff16908060040154905085565b6000809054906101000a900473ffffffffffffffffffffffffffffffffffffffff1673ffffffffffffffffffffffffffffffffffffffff163373ffffffffffffffffffffffffffffffffffffffff16141515610b80576040517f08c379a0000000000000000000000000000000000000000000000000000000008152600401610b7790611de1565b60405180910390fd5b80600160006101000a81548173ffffffffffffffffffffffffffffffffffffffff021916908373ffffffffffffffffffffffffffffffffffffffff16021790555050565b6000809054906101000a900473ffffffffffffffffffffffffffffffffffffffff1673ffffffffffffffffffffffffffffffffffffffff163373ffffffffffffffffffffffffffffffffffffffff16141515610c55576040517f08c379a0000000000000000000000000000000000000000000000000000000008152600401610c4c90611de1565b60405180910390fd5b806040518082805190602001908083835b602083101515610c8b5780518252602082019150602081019050602083039250610c66565b6001836020036101000a03801982511681845116808217855250505050505090500191505060405180910390206000191660026000600160009054906101000a900473ffffffffffffffffffffffffffffffffffffffff1673ffffffffffffffffffffffffffffffffffffffff1673ffffffffffffffffffffffffffffffffffffffff1681526020019081526020016000206002016040518082805460018160011615610100020316600290048015610d7b5780601f10610d59576101008083540402835291820191610d7b565b820191906000526020600020905b815481529060010190602001808311610d67575b5050915050604051809103902060001916141515610dce576040517f08c379a0000000000000000000000000000000000000000000000000000000008152600401610dc590611d61565b60405180910390fd5b50565b60606000809054906101000a900473ffffffffffffffffffffffffffffffffffffffff1673ffffffffffffffffffffffffffffffffffffffff163373ffffffffffffffffffffffffffffffffffffffff16141515610e64576040517f08c379a0000000000000000000000000000000000000000000000000000000008152600401610e5b90611de1565b60405180910390fd5b8173ffffffffffffffffffffffffffffffffffffffff16600260008473ffffffffffffffffffffffffffffffffffffffff1673ffffffffffffffffffffffffffffffffffffffff16815260200190815260200160002060030160009054906101000a900473ffffffffffffffffffffffffffffffffffffffff1673ffffffffffffffffffffffffffffffffffffffff161415806110145750826040518082805190602001908083835b602083101515610f325780518252602082019150602081019050602083039250610f0d565b6001836020036101000a038019825116818451168082178552505050505050905001915050604051809103902060001916600260008473ffffffffffffffffffffffffffffffffffffffff1673ffffffffffffffffffffffffffffffffffffffff16815260200190815260200160002060000160405180828054600181600116156101000203166002900480156110005780601f10610fde576101008083540402835291820191611000565b820191906000526020600020905b815481529060010190602001808311610fec575b505091505060405180910390206000191614155b1561108d577f441fd4aa565ee307ce09dd8826ece4cd38206683babcde025e0f8ac1e31b7e5d838360405161104a929190611ca9565b60405180910390a16040517f08c379a000000000000000000000000000000000000000000000000000000000815260040161108490611d41565b60405180910390fd5b81604051808273ffffffffffffffffffffffffffffffffffffffff1673ffffffffffffffffffffffffffffffffffffffff166c01000000000000000000000000028152601401915050604051809103902060001916600160009054906101000a900473ffffffffffffffffffffffffffffffffffffffff16604051808273ffffffffffffffffffffffffffffffffffffffff1673ffffffffffffffffffffffffffffffffffffffff166c0100000000000000000000000002815260140191505060405180910390206000191614156111f3577f21990f6abd65f31878cdf6ccd377ce07b4594c154c2594dcdd0e3443ddeda7a2600160009054906101000a900473ffffffffffffffffffffffffffffffffffffffff166040516111b09190611c6c565b60405180910390a16040517f08c379a00000000000000000000000000000000000000000000000000000000081526004016111ea90611dc1565b60405180910390fd5b600260008373ffffffffffffffffffffffffffffffffffffffff1673ffffffffffffffffffffffffffffffffffffffff1681526020019081526020016000206001018054600181600116156101000203166002900480601f0160208091040260200160405190810160405280929190818152602001828054600181600116156101000203166002900480156112c95780601f1061129e576101008083540402835291602001916112c9565b820191906000526020600020905b8154815290600101906020018083116112ac57829003601f168201915b5050505050905092915050565b6000809054906101000a900473ffffffffffffffffffffffffffffffffffffffff1673ffffffffffffffffffffffffffffffffffffffff163373ffffffffffffffffffffffffffffffffffffffff16141515611367576040517f08c379a000000000000000000000000000000000000000000000000000000000815260040161135e90611de1565b60405180910390fd5b60a0604051908101604052808681526020018581526020018481526020018373ffffffffffffffffffffffffffffffffffffffff16815260200182815250600260008473ffffffffffffffffffffffffffffffffffffffff1673ffffffffffffffffffffffffffffffffffffffff1681526020019081526020016000206000820151816000019080519060200190611400929190611793565b50602082015181600101908051906020019061141d929190611793565b50604082015181600201908051906020019061143a929190611793565b5060608201518160030160006101000a81548173ffffffffffffffffffffffffffffffffffffffff021916908373ffffffffffffffffffffffffffffffffffffffff160217905550608082015181600401559050505050505050565b6000809054906101000a900473ffffffffffffffffffffffffffffffffffffffff1673ffffffffffffffffffffffffffffffffffffffff163373ffffffffffffffffffffffffffffffffffffffff16141515611527576040517f08c379a000000000000000000000000000000000000000000000000000000000815260040161151e90611de1565b60405180910390fd5b60008111151561156c576040517f08c379a000000000000000000000000000000000000000000000000000000000815260040161156390611d81565b60405180910390fd5b8060026000600160009054906101000a900473ffffffffffffffffffffffffffffffffffffffff1673ffffffffffffffffffffffffffffffffffffffff1673ffffffffffffffffffffffffffffffffffffffff1681526020019081526020016000206004016000828254019250508190555050565b6000809054906101000a900473ffffffffffffffffffffffffffffffffffffffff1673ffffffffffffffffffffffffffffffffffffffff163373ffffffffffffffffffffffffffffffffffffffff16141515611672576040517f08c379a000000000000000000000000000000000000000000000000000000000815260040161166990611de1565b60405180910390fd5b6000600160006101000a81548173ffffffffffffffffffffffffffffffffffffffff021916908373ffffffffffffffffffffffffffffffffffffffff160217905550565b60008060009054906101000a900473ffffffffffffffffffffffffffffffffffffffff1673ffffffffffffffffffffffffffffffffffffffff163373ffffffffffffffffffffffffffffffffffffffff16141515611749576040517f08c379a000000000000000000000000000000000000000000000000000000000815260040161174090611de1565b60405180910390fd5b600260008373ffffffffffffffffffffffffffffffffffffffff1673ffffffffffffffffffffffffffffffffffffffff168152602001908152602001600020600401549050919050565b828054600181600116156101000203166002900490600052602060002090601f016020900481019282601f106117d457805160ff1916838001178555611802565b82800160010185558215611802579182015b828111156118015782518255916020019190600101906117e6565b5b50905061180f9190611813565b5090565b61183591905b80821115611831576000816000905550600101611819565b5090565b90565b60006118448235611eb5565b905092915050565b600082601f830112151561185f57600080fd5b813561187261186d82611e49565b611e1c565b9150808252602083016020830185838301111561188e57600080fd5b611899838284611edf565b50505092915050565b60006118ae8235611ed5565b905092915050565b6000602082840312156118c857600080fd5b60006118d684828501611838565b91505092915050565b6000602082840312156118f157600080fd5b600082013567ffffffffffffffff81111561190b57600080fd5b6119178482850161184c565b91505092915050565b6000806040838503121561193357600080fd5b600083013567ffffffffffffffff81111561194d57600080fd5b6119598582860161184c565b925050602061196a85828601611838565b9150509250929050565b600080600080600060a0868803121561198c57600080fd5b600086013567ffffffffffffffff8111156119a657600080fd5b6119b28882890161184c565b955050602086013567ffffffffffffffff8111156119cf57600080fd5b6119db8882890161184c565b945050604086013567ffffffffffffffff8111156119f857600080fd5b611a048882890161184c565b9350506060611a1588828901611838565b9250506080611a26888289016118a2565b9150509295509295909350565b600060208284031215611a4557600080fd5b6000611a53848285016118a2565b91505092915050565b60008060408385031215611a6f57600080fd5b6000611a7d858286016118a2565b9250506020611a8e85828601611838565b9150509250929050565b611aa181611e8b565b82525050565b6000611ab282611e80565b808452611ac6816020860160208601611eee565b611acf81611f21565b602085010191505092915050565b6000611ae882611e75565b808452611afc816020860160208601611eee565b611b0581611f21565b602085010191505092915050565b6000601982527f42616e6b206f7220416464726573732069732077726f6e672e000000000000006020830152604082019050919050565b6000601882527f50617373776f72642069732064697361677265656d656e7400000000000000006020830152604082019050919050565b6000601082527f30206973206e6f7420616c6c6f776564000000000000000000000000000000006020830152604082019050919050565b6000601082527f4974206973206e6f7420656e6f756768000000000000000000000000000000006020830152604082019050919050565b6000600a82527f497420697320796f752e000000000000000000000000000000000000000000006020830152604082019050919050565b6000600a82527f4f6e6c79204f776e6572000000000000000000000000000000000000000000006020830152604082019050919050565b611c6681611eab565b82525050565b6000602082019050611c816000830184611a98565b92915050565b60006020820190508181036000830152611ca18184611aa7565b905092915050565b60006040820190508181036000830152611cc38185611aa7565b9050611cd26020830184611a98565b9392505050565b600060a0820190508181036000830152611cf38188611add565b90508181036020830152611d078187611add565b90508181036040830152611d1b8186611add565b9050611d2a6060830185611a98565b611d376080830184611c5d565b9695505050505050565b60006020820190508181036000830152611d5a81611b13565b9050919050565b60006020820190508181036000830152611d7a81611b4a565b9050919050565b60006020820190508181036000830152611d9a81611b81565b9050919050565b60006020820190508181036000830152611dba81611bb8565b9050919050565b60006020820190508181036000830152611dda81611bef565b9050919050565b60006020820190508181036000830152611dfa81611c26565b9050919050565b6000602082019050611e166000830184611c5d565b92915050565b6000604051905081810181811067ffffffffffffffff82111715611e3f57600080fd5b8060405250919050565b600067ffffffffffffffff821115611e6057600080fd5b601f19601f8301169050602081019050919050565b600081519050919050565b600081519050919050565b600073ffffffffffffffffffffffffffffffffffffffff82169050919050565b6000819050919050565b600073ffffffffffffffffffffffffffffffffffffffff82169050919050565b6000819050919050565b82818337600083830152505050565b60005b83811015611f0c578082015181840152602081019050611ef1565b83811115611f1b576000848401525b50505050565b6000601f19601f83011690509190505600a265627a7a72305820716b9aad57fda26c25bbe23fc3831c7c779d8a5f3f9b9e8b5b73c40407f05ee46c6578706572696d656e74616cf50037",
  "source": "pragma solidity ^0.4.24;\r\npragma experimental ABIEncoderV2;\r\n\r\ncontract Bank {\r\n    address private bank;\r\n    address public user;\r\n    mapping (address => Account) public account;\r\n    \r\n    struct Account {\r\n        string userBank;\r\n        string userName;\r\n        string password;\r\n        address userAddress;\r\n        uint balanceOf;\r\n    }\r\n    \r\n    modifier onlyOwner() { \r\n        require(msg.sender == bank, \"Only Owner\");\r\n        _;\r\n    }\r\n    \r\n    event IncorrectInformation(string _userBank, address _userAddress);\r\n    event SendMe(address user);\r\n    \r\n    constructor() public{\r\n        bank = msg.sender;\r\n    }\r\n    \r\n    function addUser(\r\n        string memory _userBank,\r\n        string memory _userName,\r\n        string memory _password,\r\n        address _userAddress,\r\n        uint _balanceOf\r\n    ) public onlyOwner {\r\n        // if(account[_userAddress].userAddress == _userAddress) revert(\"Already saved\");\r\n        \r\n        account[_userAddress] = Account({\r\n            userBank : _userBank,\r\n            userName : _userName,\r\n            password : _password,\r\n            userAddress : _userAddress,\r\n            balanceOf : _balanceOf\r\n        });\r\n    }\r\n    \r\n    function setUser(address _userAddress) public onlyOwner {\r\n        user = _userAddress;\r\n    } \r\n    \r\n    function getUserName() public onlyOwner view returns (string memory) {\r\n        return account[user].userName;\r\n    }\r\n    \r\n    function initUser() public onlyOwner {\r\n        user = address(0x0);\r\n    }\r\n    \r\n    function getBalance(address _userAddress) public onlyOwner view returns (uint) {\r\n        return account[_userAddress].balanceOf;\r\n    }\r\n    \r\n    function deposit(uint _amount) public onlyOwner {\r\n        require(_amount > 0, \"0 is not allowed\");\r\n        account[user].balanceOf += _amount;\r\n    }\r\n    \r\n    function withdraw(uint _amount) public onlyOwner {\r\n        require(_amount > 0, \"0 is not allowed\");\r\n        require(account[user].balanceOf >= _amount, \"It is not enough\");\r\n        account[user].balanceOf -= _amount;\r\n    }\r\n    \r\n    function checkPassword(string memory _password) public onlyOwner view {\r\n        if(keccak256(account[user].password) != keccak256(_password)) revert(\"Password is disagreement\");\r\n    }\r\n    \r\n    function checkAccount(string memory _userBank, address _userAddress) public onlyOwner returns (string memory) {\r\n        if(account[_userAddress].userAddress != _userAddress || \r\n            keccak256(account[_userAddress].userBank) != keccak256(_userBank)\r\n        ) {\r\n            emit IncorrectInformation(_userBank, _userAddress);\r\n            revert(\"Bank or Address is wrong.\");\r\n        }\r\n        if(keccak256(user) == keccak256(_userAddress)){\r\n            emit SendMe(user);\r\n            revert(\"It is you.\");\r\n        }\r\n        return account[_userAddress].userName;\r\n    }\r\n    \r\n    function remit(uint _amount, address _receiverAddress) public onlyOwner {\r\n        require(_amount > 0, \"0 is not allowed\");\r\n        require(account[user].balanceOf >= _amount, \"It is not enough\");\r\n        account[user].balanceOf -= _amount;\r\n        account[_receiverAddress].balanceOf += _amount;\r\n    }\r\n}\r\n\r\n",
  "sourcePath": "c:\\Users\\judam\\Documents\\HJ\\dev\\truffle_react\\contracts\\Bank.sol",
  "compiler": {
    "name": "solc",
    "version": "0.4.24+commit.e67f0147.Emscripten.clang"
  },
  "schemaVersion": "2.0.1",
  "updatedAt": "2019-01-28T04:53:09.457Z"
}