{
  "contractName": "Bank",
  "abi": [
    {
      "constant": true,
      "inputs": [],
      "name": "user",
      "outputs": [
        {
          "name": "",
          "type": "address"
        }
      ],
      "payable": false,
      "stateMutability": "view",
      "type": "function"
    },
    {
      "constant": true,
      "inputs": [
        {
          "name": "",
          "type": "address"
        }
      ],
      "name": "account",
      "outputs": [
        {
          "name": "userBank",
          "type": "string"
        },
        {
          "name": "userName",
          "type": "string"
        },
        {
          "name": "password",
          "type": "string"
        },
        {
          "name": "etherAccount",
          "type": "address"
        },
        {
          "name": "balanceOf",
          "type": "uint256"
        }
      ],
      "payable": false,
      "stateMutability": "view",
      "type": "function"
    },
    {
      "inputs": [],
      "payable": false,
      "stateMutability": "nonpayable",
      "type": "constructor"
    },
    {
      "anonymous": false,
      "inputs": [
        {
          "indexed": false,
          "name": "_userBank",
          "type": "string"
        },
        {
          "indexed": false,
          "name": "_etherAccount",
          "type": "address"
        }
      ],
      "name": "IncorrectInformation",
      "type": "event"
    },
    {
      "anonymous": false,
      "inputs": [
        {
          "indexed": false,
          "name": "user",
          "type": "address"
        }
      ],
      "name": "SendMe",
      "type": "event"
    },
    {
      "constant": false,
      "inputs": [
        {
          "name": "_userBank",
          "type": "string"
        },
        {
          "name": "_userName",
          "type": "string"
        },
        {
          "name": "_password",
          "type": "string"
        },
        {
          "name": "_etherAccount",
          "type": "address"
        },
        {
          "name": "_balanceOf",
          "type": "uint256"
        }
      ],
      "name": "addUser",
      "outputs": [],
      "payable": false,
      "stateMutability": "nonpayable",
      "type": "function"
    },
    {
      "constant": false,
      "inputs": [
        {
          "name": "_user",
          "type": "address"
        }
      ],
      "name": "setUser",
      "outputs": [],
      "payable": false,
      "stateMutability": "nonpayable",
      "type": "function"
    },
    {
      "constant": true,
      "inputs": [],
      "name": "getUser",
      "outputs": [
        {
          "name": "",
          "type": "string"
        }
      ],
      "payable": false,
      "stateMutability": "view",
      "type": "function"
    },
    {
      "constant": false,
      "inputs": [],
      "name": "initUser",
      "outputs": [],
      "payable": false,
      "stateMutability": "nonpayable",
      "type": "function"
    },
    {
      "constant": true,
      "inputs": [],
      "name": "getBalance",
      "outputs": [
        {
          "name": "",
          "type": "uint256"
        }
      ],
      "payable": false,
      "stateMutability": "view",
      "type": "function"
    },
    {
      "constant": false,
      "inputs": [
        {
          "name": "_amount",
          "type": "uint256"
        }
      ],
      "name": "deposit",
      "outputs": [],
      "payable": false,
      "stateMutability": "nonpayable",
      "type": "function"
    },
    {
      "constant": false,
      "inputs": [
        {
          "name": "_amount",
          "type": "uint256"
        }
      ],
      "name": "withdraw",
      "outputs": [],
      "payable": false,
      "stateMutability": "nonpayable",
      "type": "function"
    },
    {
      "constant": true,
      "inputs": [
        {
          "name": "_password",
          "type": "string"
        }
      ],
      "name": "checkPassword",
      "outputs": [],
      "payable": false,
      "stateMutability": "view",
      "type": "function"
    },
    {
      "constant": false,
      "inputs": [
        {
          "name": "_userBank",
          "type": "string"
        },
        {
          "name": "_etherAccount",
          "type": "address"
        }
      ],
      "name": "checkAccount",
      "outputs": [
        {
          "name": "",
          "type": "string"
        }
      ],
      "payable": false,
      "stateMutability": "nonpayable",
      "type": "function"
    },
    {
      "constant": false,
      "inputs": [
        {
          "name": "_amount",
          "type": "uint256"
        },
        {
          "name": "_receiver",
          "type": "address"
        }
      ],
      "name": "remit",
      "outputs": [],
      "payable": false,
      "stateMutability": "nonpayable",
      "type": "function"
    }
  ],
  "bytecode": "0x608060405234801561001057600080fd5b50336000806101000a81548173ffffffffffffffffffffffffffffffffffffffff021916908373ffffffffffffffffffffffffffffffffffffffff160217905550611be6806100606000396000f3006080604052600436106100ba576000357c0100000000000000000000000000000000000000000000000000000000900463ffffffff16806312065fe0146100bf5780631eb05ad6146100ea5780632e1a7d4d146101135780634f8632ba1461013c57806373b9aa9114610167578063832880e7146101a8578063858ced35146101d357806387e16d4d146101fc578063952d88c91461022557806395cec3d014610262578063b6b55f251461028b578063c06bd7e1146102b4575b600080fd5b3480156100cb57600080fd5b506100d46102cb565b6040516100e19190611a7b565b60405180910390f35b3480156100f657600080fd5b50610111600480360361010c91908101906117db565b610392565b005b34801561011f57600080fd5b5061013a600480360361013591908101906117b2565b610535565b005b34801561014857600080fd5b50610151610687565b60405161015e9190611946565b60405180910390f35b34801561017357600080fd5b5061018e60048036036101899190810190611635565b6106ad565b60405161019f9594939291906119b3565b60405180910390f35b3480156101b457600080fd5b506101bd6108cb565b6040516101ca9190611961565b60405180910390f35b3480156101df57600080fd5b506101fa60048036036101f59190810190611635565b610a2a565b005b34801561020857600080fd5b50610223600480360361021e919081019061165e565b610ac9565b005b34801561023157600080fd5b5061024c6004803603610247919081019061169f565b610ca0565b6040516102599190611961565b60405180910390f35b34801561026e57600080fd5b50610289600480360361028491908101906116f3565b61116f565b005b34801561029757600080fd5b506102b260048036036102ad91908101906117b2565b611394565b005b3480156102c057600080fd5b506102c9611473565b005b60008060009054906101000a900473ffffffffffffffffffffffffffffffffffffffff1673ffffffffffffffffffffffffffffffffffffffff163373ffffffffffffffffffffffffffffffffffffffff1614151561032857600080fd5b60026000600160009054906101000a900473ffffffffffffffffffffffffffffffffffffffff1673ffffffffffffffffffffffffffffffffffffffff1673ffffffffffffffffffffffffffffffffffffffff16815260200190815260200160002060040154905090565b6000809054906101000a900473ffffffffffffffffffffffffffffffffffffffff1673ffffffffffffffffffffffffffffffffffffffff163373ffffffffffffffffffffffffffffffffffffffff161415156103ed57600080fd5b6000821115156103fc57600080fd5b8160026000600160009054906101000a900473ffffffffffffffffffffffffffffffffffffffff1673ffffffffffffffffffffffffffffffffffffffff1673ffffffffffffffffffffffffffffffffffffffff168152602001908152602001600020600401541015151561046f57600080fd5b8160026000600160009054906101000a900473ffffffffffffffffffffffffffffffffffffffff1673ffffffffffffffffffffffffffffffffffffffff1673ffffffffffffffffffffffffffffffffffffffff1681526020019081526020016000206004016000828254039250508190555081600260008373ffffffffffffffffffffffffffffffffffffffff1673ffffffffffffffffffffffffffffffffffffffff168152602001908152602001600020600401600082825401925050819055505050565b6000809054906101000a900473ffffffffffffffffffffffffffffffffffffffff1673ffffffffffffffffffffffffffffffffffffffff163373ffffffffffffffffffffffffffffffffffffffff1614151561059057600080fd5b60008111151561059f57600080fd5b8060026000600160009054906101000a900473ffffffffffffffffffffffffffffffffffffffff1673ffffffffffffffffffffffffffffffffffffffff1673ffffffffffffffffffffffffffffffffffffffff168152602001908152602001600020600401541015151561061257600080fd5b8060026000600160009054906101000a900473ffffffffffffffffffffffffffffffffffffffff1673ffffffffffffffffffffffffffffffffffffffff1673ffffffffffffffffffffffffffffffffffffffff1681526020019081526020016000206004016000828254039250508190555050565b600160009054906101000a900473ffffffffffffffffffffffffffffffffffffffff1681565b6002602052806000526040600020600091509050806000018054600181600116156101000203166002900480601f0160208091040260200160405190810160405280929190818152602001828054600181600116156101000203166002900480156107595780601f1061072e57610100808354040283529160200191610759565b820191906000526020600020905b81548152906001019060200180831161073c57829003601f168201915b505050505090806001018054600181600116156101000203166002900480601f0160208091040260200160405190810160405280929190818152602001828054600181600116156101000203166002900480156107f75780601f106107cc576101008083540402835291602001916107f7565b820191906000526020600020905b8154815290600101906020018083116107da57829003601f168201915b505050505090806002018054600181600116156101000203166002900480601f0160208091040260200160405190810160405280929190818152602001828054600181600116156101000203166002900480156108955780601f1061086a57610100808354040283529160200191610895565b820191906000526020600020905b81548152906001019060200180831161087857829003601f168201915b5050505050908060030160009054906101000a900473ffffffffffffffffffffffffffffffffffffffff16908060040154905085565b60606000809054906101000a900473ffffffffffffffffffffffffffffffffffffffff1673ffffffffffffffffffffffffffffffffffffffff163373ffffffffffffffffffffffffffffffffffffffff1614151561092857600080fd5b60026000600160009054906101000a900473ffffffffffffffffffffffffffffffffffffffff1673ffffffffffffffffffffffffffffffffffffffff1673ffffffffffffffffffffffffffffffffffffffff1681526020019081526020016000206001018054600181600116156101000203166002900480601f016020809104026020016040519081016040528092919081815260200182805460018160011615610100020316600290048015610a205780601f106109f557610100808354040283529160200191610a20565b820191906000526020600020905b815481529060010190602001808311610a0357829003601f168201915b5050505050905090565b6000809054906101000a900473ffffffffffffffffffffffffffffffffffffffff1673ffffffffffffffffffffffffffffffffffffffff163373ffffffffffffffffffffffffffffffffffffffff16141515610a8557600080fd5b80600160006101000a81548173ffffffffffffffffffffffffffffffffffffffff021916908373ffffffffffffffffffffffffffffffffffffffff16021790555050565b6000809054906101000a900473ffffffffffffffffffffffffffffffffffffffff1673ffffffffffffffffffffffffffffffffffffffff163373ffffffffffffffffffffffffffffffffffffffff16141515610b2457600080fd5b806040518082805190602001908083835b602083101515610b5a5780518252602082019150602081019050602083039250610b35565b6001836020036101000a03801982511681845116808217855250505050505090500191505060405180910390206000191660026000600160009054906101000a900473ffffffffffffffffffffffffffffffffffffffff1673ffffffffffffffffffffffffffffffffffffffff1673ffffffffffffffffffffffffffffffffffffffff1681526020019081526020016000206002016040518082805460018160011615610100020316600290048015610c4a5780601f10610c28576101008083540402835291820191610c4a565b820191906000526020600020905b815481529060010190602001808311610c36575b5050915050604051809103902060001916141515610c9d576040517f08c379a0000000000000000000000000000000000000000000000000000000008152600401610c9490611a3b565b60405180910390fd5b50565b60606000809054906101000a900473ffffffffffffffffffffffffffffffffffffffff1673ffffffffffffffffffffffffffffffffffffffff163373ffffffffffffffffffffffffffffffffffffffff16141515610cfd57600080fd5b8173ffffffffffffffffffffffffffffffffffffffff16600260008473ffffffffffffffffffffffffffffffffffffffff1673ffffffffffffffffffffffffffffffffffffffff16815260200190815260200160002060030160009054906101000a900473ffffffffffffffffffffffffffffffffffffffff1673ffffffffffffffffffffffffffffffffffffffff16141580610ead5750826040518082805190602001908083835b602083101515610dcb5780518252602082019150602081019050602083039250610da6565b6001836020036101000a038019825116818451168082178552505050505050905001915050604051809103902060001916600260008473ffffffffffffffffffffffffffffffffffffffff1673ffffffffffffffffffffffffffffffffffffffff1681526020019081526020016000206000016040518082805460018160011615610100020316600290048015610e995780601f10610e77576101008083540402835291820191610e99565b820191906000526020600020905b815481529060010190602001808311610e85575b505091505060405180910390206000191614155b15610f26577f441fd4aa565ee307ce09dd8826ece4cd38206683babcde025e0f8ac1e31b7e5d8383604051610ee3929190611983565b60405180910390a16040517f08c379a0000000000000000000000000000000000000000000000000000000008152600401610f1d90611a1b565b60405180910390fd5b81604051808273ffffffffffffffffffffffffffffffffffffffff1673ffffffffffffffffffffffffffffffffffffffff166c01000000000000000000000000028152601401915050604051809103902060001916600160009054906101000a900473ffffffffffffffffffffffffffffffffffffffff16604051808273ffffffffffffffffffffffffffffffffffffffff1673ffffffffffffffffffffffffffffffffffffffff166c01000000000000000000000000028152601401915050604051809103902060001916141561108c577f21990f6abd65f31878cdf6ccd377ce07b4594c154c2594dcdd0e3443ddeda7a2600160009054906101000a900473ffffffffffffffffffffffffffffffffffffffff166040516110499190611946565b60405180910390a16040517f08c379a000000000000000000000000000000000000000000000000000000000815260040161108390611a5b565b60405180910390fd5b600260008373ffffffffffffffffffffffffffffffffffffffff1673ffffffffffffffffffffffffffffffffffffffff1681526020019081526020016000206001018054600181600116156101000203166002900480601f0160208091040260200160405190810160405280929190818152602001828054600181600116156101000203166002900480156111625780601f1061113757610100808354040283529160200191611162565b820191906000526020600020905b81548152906001019060200180831161114557829003601f168201915b5050505050905092915050565b6000809054906101000a900473ffffffffffffffffffffffffffffffffffffffff1673ffffffffffffffffffffffffffffffffffffffff163373ffffffffffffffffffffffffffffffffffffffff161415156111ca57600080fd5b8173ffffffffffffffffffffffffffffffffffffffff16600260008473ffffffffffffffffffffffffffffffffffffffff1673ffffffffffffffffffffffffffffffffffffffff16815260200190815260200160002060030160009054906101000a900473ffffffffffffffffffffffffffffffffffffffff1673ffffffffffffffffffffffffffffffffffffffff16141561126557600080fd5b60a0604051908101604052808681526020018581526020018481526020018373ffffffffffffffffffffffffffffffffffffffff16815260200182815250600260008473ffffffffffffffffffffffffffffffffffffffff1673ffffffffffffffffffffffffffffffffffffffff16815260200190815260200160002060008201518160000190805190602001906112fe929190611512565b50602082015181600101908051906020019061131b929190611512565b506040820151816002019080519060200190611338929190611512565b5060608201518160030160006101000a81548173ffffffffffffffffffffffffffffffffffffffff021916908373ffffffffffffffffffffffffffffffffffffffff160217905550608082015181600401559050505050505050565b6000809054906101000a900473ffffffffffffffffffffffffffffffffffffffff1673ffffffffffffffffffffffffffffffffffffffff163373ffffffffffffffffffffffffffffffffffffffff161415156113ef57600080fd5b6000811115156113fe57600080fd5b8060026000600160009054906101000a900473ffffffffffffffffffffffffffffffffffffffff1673ffffffffffffffffffffffffffffffffffffffff1673ffffffffffffffffffffffffffffffffffffffff1681526020019081526020016000206004016000828254019250508190555050565b6000809054906101000a900473ffffffffffffffffffffffffffffffffffffffff1673ffffffffffffffffffffffffffffffffffffffff163373ffffffffffffffffffffffffffffffffffffffff161415156114ce57600080fd5b6000600160006101000a81548173ffffffffffffffffffffffffffffffffffffffff021916908373ffffffffffffffffffffffffffffffffffffffff160217905550565b828054600181600116156101000203166002900490600052602060002090601f016020900481019282601f1061155357805160ff1916838001178555611581565b82800160010185558215611581579182015b82811115611580578251825591602001919060010190611565565b5b50905061158e9190611592565b5090565b6115b491905b808211156115b0576000816000905550600101611598565b5090565b90565b60006115c38235611b2f565b905092915050565b600082601f83011215156115de57600080fd5b81356115f16115ec82611ac3565b611a96565b9150808252602083016020830185838301111561160d57600080fd5b611618838284611b59565b50505092915050565b600061162d8235611b4f565b905092915050565b60006020828403121561164757600080fd5b6000611655848285016115b7565b91505092915050565b60006020828403121561167057600080fd5b600082013567ffffffffffffffff81111561168a57600080fd5b611696848285016115cb565b91505092915050565b600080604083850312156116b257600080fd5b600083013567ffffffffffffffff8111156116cc57600080fd5b6116d8858286016115cb565b92505060206116e9858286016115b7565b9150509250929050565b600080600080600060a0868803121561170b57600080fd5b600086013567ffffffffffffffff81111561172557600080fd5b611731888289016115cb565b955050602086013567ffffffffffffffff81111561174e57600080fd5b61175a888289016115cb565b945050604086013567ffffffffffffffff81111561177757600080fd5b611783888289016115cb565b9350506060611794888289016115b7565b92505060806117a588828901611621565b9150509295509295909350565b6000602082840312156117c457600080fd5b60006117d284828501611621565b91505092915050565b600080604083850312156117ee57600080fd5b60006117fc85828601611621565b925050602061180d858286016115b7565b9150509250929050565b61182081611b05565b82525050565b600061183182611afa565b808452611845816020860160208601611b68565b61184e81611b9b565b602085010191505092915050565b600061186782611aef565b80845261187b816020860160208601611b68565b61188481611b9b565b602085010191505092915050565b6000601982527f42616e6b206f7220416464726573732069732077726f6e672e000000000000006020830152604082019050919050565b6000601882527f50617373776f72642069732064697361677265656d656e7400000000000000006020830152604082019050919050565b6000600a82527f497420697320796f752e000000000000000000000000000000000000000000006020830152604082019050919050565b61194081611b25565b82525050565b600060208201905061195b6000830184611817565b92915050565b6000602082019050818103600083015261197b8184611826565b905092915050565b6000604082019050818103600083015261199d8185611826565b90506119ac6020830184611817565b9392505050565b600060a08201905081810360008301526119cd818861185c565b905081810360208301526119e1818761185c565b905081810360408301526119f5818661185c565b9050611a046060830185611817565b611a116080830184611937565b9695505050505050565b60006020820190508181036000830152611a3481611892565b9050919050565b60006020820190508181036000830152611a54816118c9565b9050919050565b60006020820190508181036000830152611a7481611900565b9050919050565b6000602082019050611a906000830184611937565b92915050565b6000604051905081810181811067ffffffffffffffff82111715611ab957600080fd5b8060405250919050565b600067ffffffffffffffff821115611ada57600080fd5b601f19601f8301169050602081019050919050565b600081519050919050565b600081519050919050565b600073ffffffffffffffffffffffffffffffffffffffff82169050919050565b6000819050919050565b600073ffffffffffffffffffffffffffffffffffffffff82169050919050565b6000819050919050565b82818337600083830152505050565b60005b83811015611b86578082015181840152602081019050611b6b565b83811115611b95576000848401525b50505050565b6000601f19601f83011690509190505600a265627a7a7230582096f43dde8f0867c0a3cd2fe007df3aede84e90734e80bc2f9f24ef1afb699bba6c6578706572696d656e74616cf50037",
  "source": "pragma solidity ^0.4.24;\r\npragma experimental ABIEncoderV2;\r\n\r\ncontract Bank {\r\n    address private bank;\r\n    address public user;\r\n    mapping (address => Account) public account;\r\n    \r\n    struct Account {\r\n        string userBank;\r\n        string userName;\r\n        string password;\r\n        address etherAccount;\r\n        uint balanceOf;\r\n    }\r\n    \r\n    modifier onlyOwner() { \r\n        require(msg.sender == bank);\r\n        _;\r\n    }\r\n    \r\n    event IncorrectInformation(string _userBank, address _etherAccount);\r\n    event SendMe(address user);\r\n    \r\n    constructor() public{\r\n        bank = msg.sender;\r\n    }\r\n    \r\n    function addUser(string _userBank, string _userName, string _password, address _etherAccount, uint _balanceOf) public onlyOwner {\r\n        if(account[_etherAccount].etherAccount == _etherAccount) revert();\r\n        \r\n        account[_etherAccount] = Account({\r\n            userBank : _userBank,\r\n            userName : _userName,\r\n            password : _password,\r\n            etherAccount : _etherAccount,\r\n            balanceOf : _balanceOf\r\n        });\r\n    }\r\n    \r\n    function setUser(address _user) public onlyOwner {\r\n        user = _user;\r\n    } \r\n    \r\n    function getUser() public onlyOwner view returns (string memory) {\r\n        return account[user].userName;\r\n    }\r\n    \r\n    function initUser() public onlyOwner {\r\n        user = address(0x0);\r\n    }\r\n    \r\n    function getBalance() public onlyOwner view returns (uint) {\r\n        return account[user].balanceOf;\r\n    }\r\n    \r\n    function deposit(uint _amount) public onlyOwner {\r\n        require(_amount > 0);\r\n        account[user].balanceOf += _amount;\r\n    }\r\n    \r\n    function withdraw(uint _amount) public onlyOwner {\r\n        require(_amount > 0);\r\n        require(account[user].balanceOf >= _amount);\r\n        account[user].balanceOf -= _amount;\r\n    }\r\n    \r\n    function checkPassword(string memory _password) public onlyOwner view {\r\n        if(keccak256(account[user].password) != keccak256(_password)) revert(\"Password is disagreement\");\r\n    }\r\n    \r\n    function checkAccount(string memory _userBank, address _etherAccount) public onlyOwner returns (string memory) {\r\n        if(account[_etherAccount].etherAccount != _etherAccount || \r\n            keccak256(account[_etherAccount].userBank) != keccak256(_userBank)\r\n        ) {\r\n            emit IncorrectInformation(_userBank, _etherAccount);\r\n            revert(\"Bank or Address is wrong.\");\r\n        }\r\n        if(keccak256(user) == keccak256(_etherAccount)){\r\n            emit SendMe(user);\r\n            revert(\"It is you.\");\r\n        }\r\n        return account[_etherAccount].userName;\r\n    }\r\n    \r\n    function remit(uint _amount, address _receiver) public onlyOwner {\r\n        require(_amount > 0);\r\n        require(Bank.account[user].balanceOf >= _amount);\r\n        account[user].balanceOf -= _amount;\r\n        account[_receiver].balanceOf += _amount;\r\n    }\r\n}\r\n\r\n",
  "sourcePath": "C:\\Users\\judam\\Documents\\HJ\\dev\\truffle_react\\contracts\\Bank.sol",
  "compiler": {
    "name": "solc",
    "version": "0.4.24+commit.e67f0147.Emscripten.clang"
  },
  "schemaVersion": "2.0.1",
  "updatedAt": "2019-01-24T10:13:50.707Z"
}