{
  "contractName": "Bank",
  "abi": [
    {
      "constant": true,
      "inputs": [],
      "name": "user",
      "outputs": [
        {
          "name": "",
          "type": "address"
        }
      ],
      "payable": false,
      "stateMutability": "view",
      "type": "function"
    },
    {
      "constant": true,
      "inputs": [
        {
          "name": "",
          "type": "address"
        }
      ],
      "name": "account",
      "outputs": [
        {
          "name": "userBank",
          "type": "string"
        },
        {
          "name": "userName",
          "type": "string"
        },
        {
          "name": "password",
          "type": "string"
        },
        {
          "name": "etherAccount",
          "type": "address"
        },
        {
          "name": "balanceOf",
          "type": "uint256"
        }
      ],
      "payable": false,
      "stateMutability": "view",
      "type": "function"
    },
    {
      "inputs": [],
      "payable": false,
      "stateMutability": "nonpayable",
      "type": "constructor"
    },
    {
      "constant": false,
      "inputs": [
        {
          "name": "_userBank",
          "type": "string"
        },
        {
          "name": "_userName",
          "type": "string"
        },
        {
          "name": "_password",
          "type": "string"
        },
        {
          "name": "_etherAccount",
          "type": "address"
        },
        {
          "name": "_balanceOf",
          "type": "uint256"
        }
      ],
      "name": "addUser",
      "outputs": [],
      "payable": false,
      "stateMutability": "nonpayable",
      "type": "function"
    },
    {
      "constant": false,
      "inputs": [
        {
          "name": "_user",
          "type": "address"
        }
      ],
      "name": "setUser",
      "outputs": [],
      "payable": false,
      "stateMutability": "nonpayable",
      "type": "function"
    },
    {
      "constant": true,
      "inputs": [],
      "name": "getUser",
      "outputs": [
        {
          "name": "",
          "type": "string"
        }
      ],
      "payable": false,
      "stateMutability": "view",
      "type": "function"
    },
    {
      "constant": false,
      "inputs": [],
      "name": "initUser",
      "outputs": [],
      "payable": false,
      "stateMutability": "nonpayable",
      "type": "function"
    },
    {
      "constant": true,
      "inputs": [],
      "name": "getBalance",
      "outputs": [
        {
          "name": "",
          "type": "uint256"
        }
      ],
      "payable": false,
      "stateMutability": "view",
      "type": "function"
    },
    {
      "constant": false,
      "inputs": [
        {
          "name": "_amount",
          "type": "uint256"
        }
      ],
      "name": "deposit",
      "outputs": [],
      "payable": false,
      "stateMutability": "nonpayable",
      "type": "function"
    },
    {
      "constant": false,
      "inputs": [
        {
          "name": "_amount",
          "type": "uint256"
        }
      ],
      "name": "withdraw",
      "outputs": [],
      "payable": false,
      "stateMutability": "nonpayable",
      "type": "function"
    },
    {
      "constant": true,
      "inputs": [
        {
          "name": "_password",
          "type": "string"
        }
      ],
      "name": "checkPassword",
      "outputs": [],
      "payable": false,
      "stateMutability": "view",
      "type": "function"
    },
    {
      "constant": false,
      "inputs": [
        {
          "name": "_amount",
          "type": "uint256"
        },
        {
          "name": "_receiver",
          "type": "address"
        }
      ],
      "name": "remit",
      "outputs": [],
      "payable": false,
      "stateMutability": "nonpayable",
      "type": "function"
    }
  ],
  "bytecode": "0x608060405234801561001057600080fd5b50336000806101000a81548173ffffffffffffffffffffffffffffffffffffffff021916908373ffffffffffffffffffffffffffffffffffffffff16021790555061150f806100606000396000f3006080604052600436106100af576000357c0100000000000000000000000000000000000000000000000000000000900463ffffffff16806312065fe0146100b45780631eb05ad6146100df5780632e1a7d4d146101085780634f8632ba1461013157806373b9aa911461015c578063832880e71461019d578063858ced35146101c857806387e16d4d146101f157806395cec3d01461021a578063b6b55f2514610243578063c06bd7e11461026c575b600080fd5b3480156100c057600080fd5b506100c9610283565b6040516100d691906113a4565b60405180910390f35b3480156100eb57600080fd5b5061010660048036036101019190810190611239565b61034a565b005b34801561011457600080fd5b5061012f600480360361012a9190810190611210565b6104ed565b005b34801561013d57600080fd5b5061014661063e565b60405161015391906112ff565b60405180910390f35b34801561016857600080fd5b50610183600480360361017e91908101906110e7565b610664565b60405161019495949392919061133c565b60405180910390f35b3480156101a957600080fd5b506101b2610882565b6040516101bf919061131a565b60405180910390f35b3480156101d457600080fd5b506101ef60048036036101ea91908101906110e7565b6109e1565b005b3480156101fd57600080fd5b5061021860048036036102139190810190611110565b610a80565b005b34801561022657600080fd5b50610241600480360361023c9190810190611151565b610c21565b005b34801561024f57600080fd5b5061026a60048036036102659190810190611210565b610e46565b005b34801561027857600080fd5b50610281610f25565b005b60008060009054906101000a900473ffffffffffffffffffffffffffffffffffffffff1673ffffffffffffffffffffffffffffffffffffffff163373ffffffffffffffffffffffffffffffffffffffff161415156102e057600080fd5b60026000600160009054906101000a900473ffffffffffffffffffffffffffffffffffffffff1673ffffffffffffffffffffffffffffffffffffffff1673ffffffffffffffffffffffffffffffffffffffff16815260200190815260200160002060040154905090565b6000809054906101000a900473ffffffffffffffffffffffffffffffffffffffff1673ffffffffffffffffffffffffffffffffffffffff163373ffffffffffffffffffffffffffffffffffffffff161415156103a557600080fd5b6000821115156103b457600080fd5b8160026000600160009054906101000a900473ffffffffffffffffffffffffffffffffffffffff1673ffffffffffffffffffffffffffffffffffffffff1673ffffffffffffffffffffffffffffffffffffffff168152602001908152602001600020600401541015151561042757600080fd5b8160026000600160009054906101000a900473ffffffffffffffffffffffffffffffffffffffff1673ffffffffffffffffffffffffffffffffffffffff1673ffffffffffffffffffffffffffffffffffffffff1681526020019081526020016000206004016000828254039250508190555081600260008373ffffffffffffffffffffffffffffffffffffffff1673ffffffffffffffffffffffffffffffffffffffff168152602001908152602001600020600401600082825401925050819055505050565b6000809054906101000a900473ffffffffffffffffffffffffffffffffffffffff1673ffffffffffffffffffffffffffffffffffffffff163373ffffffffffffffffffffffffffffffffffffffff1614151561054857600080fd5b60008111151561055757600080fd5b8060026000600160009054906101000a900473ffffffffffffffffffffffffffffffffffffffff1673ffffffffffffffffffffffffffffffffffffffff1673ffffffffffffffffffffffffffffffffffffffff168152602001908152602001600020600401541115156105c957600080fd5b8060026000600160009054906101000a900473ffffffffffffffffffffffffffffffffffffffff1673ffffffffffffffffffffffffffffffffffffffff1673ffffffffffffffffffffffffffffffffffffffff1681526020019081526020016000206004016000828254039250508190555050565b600160009054906101000a900473ffffffffffffffffffffffffffffffffffffffff1681565b6002602052806000526040600020600091509050806000018054600181600116156101000203166002900480601f0160208091040260200160405190810160405280929190818152602001828054600181600116156101000203166002900480156107105780601f106106e557610100808354040283529160200191610710565b820191906000526020600020905b8154815290600101906020018083116106f357829003601f168201915b505050505090806001018054600181600116156101000203166002900480601f0160208091040260200160405190810160405280929190818152602001828054600181600116156101000203166002900480156107ae5780601f10610783576101008083540402835291602001916107ae565b820191906000526020600020905b81548152906001019060200180831161079157829003601f168201915b505050505090806002018054600181600116156101000203166002900480601f01602080910402602001604051908101604052809291908181526020018280546001816001161561010002031660029004801561084c5780601f106108215761010080835404028352916020019161084c565b820191906000526020600020905b81548152906001019060200180831161082f57829003601f168201915b5050505050908060030160009054906101000a900473ffffffffffffffffffffffffffffffffffffffff16908060040154905085565b60606000809054906101000a900473ffffffffffffffffffffffffffffffffffffffff1673ffffffffffffffffffffffffffffffffffffffff163373ffffffffffffffffffffffffffffffffffffffff161415156108df57600080fd5b60026000600160009054906101000a900473ffffffffffffffffffffffffffffffffffffffff1673ffffffffffffffffffffffffffffffffffffffff1673ffffffffffffffffffffffffffffffffffffffff1681526020019081526020016000206001018054600181600116156101000203166002900480601f0160208091040260200160405190810160405280929190818152602001828054600181600116156101000203166002900480156109d75780601f106109ac576101008083540402835291602001916109d7565b820191906000526020600020905b8154815290600101906020018083116109ba57829003601f168201915b5050505050905090565b6000809054906101000a900473ffffffffffffffffffffffffffffffffffffffff1673ffffffffffffffffffffffffffffffffffffffff163373ffffffffffffffffffffffffffffffffffffffff16141515610a3c57600080fd5b80600160006101000a81548173ffffffffffffffffffffffffffffffffffffffff021916908373ffffffffffffffffffffffffffffffffffffffff16021790555050565b6000809054906101000a900473ffffffffffffffffffffffffffffffffffffffff1673ffffffffffffffffffffffffffffffffffffffff163373ffffffffffffffffffffffffffffffffffffffff16141515610adb57600080fd5b806040518082805190602001908083835b602083101515610b115780518252602082019150602081019050602083039250610aec565b6001836020036101000a03801982511681845116808217855250505050505090500191505060405180910390206000191660026000600160009054906101000a900473ffffffffffffffffffffffffffffffffffffffff1673ffffffffffffffffffffffffffffffffffffffff1673ffffffffffffffffffffffffffffffffffffffff1681526020019081526020016000206002016040518082805460018160011615610100020316600290048015610c015780601f10610bdf576101008083540402835291820191610c01565b820191906000526020600020905b815481529060010190602001808311610bed575b5050915050604051809103902060001916141515610c1e57600080fd5b50565b6000809054906101000a900473ffffffffffffffffffffffffffffffffffffffff1673ffffffffffffffffffffffffffffffffffffffff163373ffffffffffffffffffffffffffffffffffffffff16141515610c7c57600080fd5b8173ffffffffffffffffffffffffffffffffffffffff16600260008473ffffffffffffffffffffffffffffffffffffffff1673ffffffffffffffffffffffffffffffffffffffff16815260200190815260200160002060030160009054906101000a900473ffffffffffffffffffffffffffffffffffffffff1673ffffffffffffffffffffffffffffffffffffffff161415610d1757600080fd5b60a0604051908101604052808681526020018581526020018481526020018373ffffffffffffffffffffffffffffffffffffffff16815260200182815250600260008473ffffffffffffffffffffffffffffffffffffffff1673ffffffffffffffffffffffffffffffffffffffff1681526020019081526020016000206000820151816000019080519060200190610db0929190610fc4565b506020820151816001019080519060200190610dcd929190610fc4565b506040820151816002019080519060200190610dea929190610fc4565b5060608201518160030160006101000a81548173ffffffffffffffffffffffffffffffffffffffff021916908373ffffffffffffffffffffffffffffffffffffffff160217905550608082015181600401559050505050505050565b6000809054906101000a900473ffffffffffffffffffffffffffffffffffffffff1673ffffffffffffffffffffffffffffffffffffffff163373ffffffffffffffffffffffffffffffffffffffff16141515610ea157600080fd5b600081111515610eb057600080fd5b8060026000600160009054906101000a900473ffffffffffffffffffffffffffffffffffffffff1673ffffffffffffffffffffffffffffffffffffffff1673ffffffffffffffffffffffffffffffffffffffff1681526020019081526020016000206004016000828254019250508190555050565b6000809054906101000a900473ffffffffffffffffffffffffffffffffffffffff1673ffffffffffffffffffffffffffffffffffffffff163373ffffffffffffffffffffffffffffffffffffffff16141515610f8057600080fd5b6000600160006101000a81548173ffffffffffffffffffffffffffffffffffffffff021916908373ffffffffffffffffffffffffffffffffffffffff160217905550565b828054600181600116156101000203166002900490600052602060002090601f016020900481019282601f1061100557805160ff1916838001178555611033565b82800160010185558215611033579182015b82811115611032578251825591602001919060010190611017565b5b5090506110409190611044565b5090565b61106691905b8082111561106257600081600090555060010161104a565b5090565b90565b60006110758235611458565b905092915050565b600082601f830112151561109057600080fd5b81356110a361109e826113ec565b6113bf565b915080825260208301602083018583830111156110bf57600080fd5b6110ca838284611482565b50505092915050565b60006110df8235611478565b905092915050565b6000602082840312156110f957600080fd5b600061110784828501611069565b91505092915050565b60006020828403121561112257600080fd5b600082013567ffffffffffffffff81111561113c57600080fd5b6111488482850161107d565b91505092915050565b600080600080600060a0868803121561116957600080fd5b600086013567ffffffffffffffff81111561118357600080fd5b61118f8882890161107d565b955050602086013567ffffffffffffffff8111156111ac57600080fd5b6111b88882890161107d565b945050604086013567ffffffffffffffff8111156111d557600080fd5b6111e18882890161107d565b93505060606111f288828901611069565b9250506080611203888289016110d3565b9150509295509295909350565b60006020828403121561122257600080fd5b6000611230848285016110d3565b91505092915050565b6000806040838503121561124c57600080fd5b600061125a858286016110d3565b925050602061126b85828601611069565b9150509250929050565b61127e8161142e565b82525050565b600061128f82611423565b8084526112a3816020860160208601611491565b6112ac816114c4565b602085010191505092915050565b60006112c582611418565b8084526112d9816020860160208601611491565b6112e2816114c4565b602085010191505092915050565b6112f98161144e565b82525050565b60006020820190506113146000830184611275565b92915050565b600060208201905081810360008301526113348184611284565b905092915050565b600060a082019050818103600083015261135681886112ba565b9050818103602083015261136a81876112ba565b9050818103604083015261137e81866112ba565b905061138d6060830185611275565b61139a60808301846112f0565b9695505050505050565b60006020820190506113b960008301846112f0565b92915050565b6000604051905081810181811067ffffffffffffffff821117156113e257600080fd5b8060405250919050565b600067ffffffffffffffff82111561140357600080fd5b601f19601f8301169050602081019050919050565b600081519050919050565b600081519050919050565b600073ffffffffffffffffffffffffffffffffffffffff82169050919050565b6000819050919050565b600073ffffffffffffffffffffffffffffffffffffffff82169050919050565b6000819050919050565b82818337600083830152505050565b60005b838110156114af578082015181840152602081019050611494565b838111156114be576000848401525b50505050565b6000601f19601f83011690509190505600a265627a7a7230582010926eff3973f75dae7320c1bbedfe34986618f3e04e995385e9cbf66167b60c6c6578706572696d656e74616cf50037",
  "source": "pragma solidity ^0.4.24;\r\npragma experimental ABIEncoderV2;\r\n\r\ncontract Bank {\r\n    address private bank;\r\n    address public user;\r\n    mapping (address => Account) public account;\r\n    \r\n    struct Account {\r\n        string userBank;\r\n        string userName;\r\n        string password;\r\n        address etherAccount;\r\n        uint balanceOf;\r\n    }\r\n    \r\n    modifier onlyOwner() { require(msg.sender == bank); _; }\r\n    \r\n    constructor() public{\r\n        bank = msg.sender;\r\n    }\r\n    \r\n    function addUser(string _userBank, string _userName, string _password, address _etherAccount, uint _balanceOf) public onlyOwner {\r\n        if(account[_etherAccount].etherAccount == _etherAccount) revert();\r\n        \r\n        account[_etherAccount] = Account({\r\n            userBank : _userBank, \r\n            userName : _userName, \r\n            password : _password, \r\n            etherAccount : _etherAccount, \r\n            balanceOf : _balanceOf\r\n        });\r\n    }\r\n    \r\n    function setUser(address _user) public onlyOwner {\r\n        user = _user;\r\n    } \r\n    \r\n    function getUser() public onlyOwner view returns (string) {\r\n        return account[user].userName;\r\n    }\r\n    \r\n    function initUser() public onlyOwner {\r\n        user = address(0x0);\r\n    }\r\n    \r\n    function getBalance() public onlyOwner view returns (uint) {\r\n        return account[user].balanceOf;\r\n    }\r\n    \r\n    function deposit(uint _amount) public onlyOwner {\r\n        require(_amount > 0);\r\n        account[user].balanceOf += _amount;\r\n    }\r\n    \r\n    function withdraw(uint _amount) public onlyOwner {\r\n        require(_amount > 0);\r\n        require(account[user].balanceOf > _amount);\r\n        account[user].balanceOf -= _amount;\r\n    }\r\n    \r\n    function checkPassword(string memory _password) public onlyOwner view {\r\n        if(keccak256(Bank.account[user].password) != keccak256(_password)) revert();\r\n    }\r\n    \r\n    function remit(uint _amount, address _receiver) public onlyOwner {\r\n        require(_amount > 0);\r\n        require(Bank.account[user].balanceOf >= _amount);\r\n        account[user].balanceOf -= _amount;\r\n        account[_receiver].balanceOf += _amount;\r\n    }\r\n}\r\n\r\n",
  "sourcePath": "C:\\Users\\judam\\Documents\\HJ\\dev\\truffle_react\\contracts\\Bank.sol",
  "compiler": {
    "name": "solc",
    "version": "0.4.24+commit.e67f0147.Emscripten.clang"
  },
  "schemaVersion": "2.0.1",
  "updatedAt": "2019-01-22T08:40:57.484Z"
}